:100000000C943A000C9457000C9457000C94570031
:100010000C94D4000C9439010C9457000C945700A4
:100020000C9457000C9457000C9457000C94340314
:100030000C9457000C9457000C94D7010C94570063
:100040000C9457000C9457000C947A020C945700AF
:100050000C9457000C9457000C9457000C945700C4
:100060000C9457000C9457006364696E6F7073753D
:1000700078585B0011241FBECFEFD8E0DEBFCDBFA4
:1000800011E0A0E0B1E0EEEEF7E102C005900D92C4
:10009000AC35B107D9F711E0ACE5B1E001C01D9274
:1000A000A537B107E1F70E9462030C94F50B0C949D
:1000B00000009BB19F709BB99BB1807F892B8BB94E
:1000C000299A299A299808951F93182F289A0E94EF
:1000D0005900812F8295807F0E94590080E49FE122
:1000E0000197F1F71F910895CF93DF93EC0102C0C0
:1000F0000E94640089918823D9F7DF91CF910895F8
:100100001F93182F28980E945900812F8295807F75
:100110000E94590080E49FE10197F1F71F91089533
:10012000882319F4862F805802C0862F80540E949D
:1001300080000895209A219A549A559A569A579A6F
:1001400080E69AEE0197F1F780E30E94590080E281
:100150009EE40197F1F780E30E94590080EE91E060
:100160000197F1F780E30E94590080E20E94590054
:1001700080E49FE10197F1F788E20E9480008FE020
:100180000E9480000895E1E8F0E08081886080832B
:10019000EFE6F0E080818260808384E294EF9093C8
:1001A00089008093880008951F920F920FB60F92D6
:1001B00011242F933F934F935F936F937F938F936C
:1001C0009F93AF93BF93EF93FF9334990AC010921C
:1001D0008500109284008091810085608093810069
:1001E0002D9A359935C08091840090918500A0E0CA
:1001F000B0E080935C0190935D01A0935E01B093A9
:100200005F0160915C0170915D0180915E01909150
:100210005F0128E230E040E050E00E945A0521E70B
:1002200032E040E050E00E948D05C901DA01809380
:100230005C0190935D01A0935E01B0935F0181E04A
:1002400080936001809181008A7F809381002D9846
:10025000FF91EF91BF91AF919F918F917F916F919E
:100260005F914F913F912F910F900FBE0F901F9074
:1002700018951F920F920FB60F9211242F938F9300
:100280009F9389B190E09695879596958795282FAD
:10029000217020936E0196958795817080936901F6
:1002A00080916A01882369F480916E01882311F09E
:1002B00081E02EC080916901882309F441C082E069
:1002C00034C080916A01813069F48091690188238A
:1002D00011F083E01DC080916E01882389F5109292
:1002E0006B0125C080916A01823069F480916E01B2
:1002F000882311F083E019C080916901882301F5FA
:1003000010926B0107C080916E01882349F482E04E
:1003100080936B01809157019091580101960CC018
:1003200080916901882361F481E080936B01809161
:10033000570190915801019790935801809357016C
:1003400080915701909158018336910518F083E60A
:1003500090E008C08091570190915801029730F4C5
:1003600081E090E0909358018093570190916B0148
:1003700080916A01981739F081E080936101809142
:100380006B0180936A019F918F912F910F900FBE07
:100390000F901F901895399A84B5826084BDEEE65F
:1003A000F0E080818260808386E487BD08951F929B
:1003B0000F920FB60F9211242F938F939F938091DA
:1003C00063019091640101969093640180936301AD
:1003D00088B192E0892788B9809163019091640186
:1003E000845F914050F04198109264011092630133
:1003F0001092620185B58B7F85BD9F918F912F9162
:100400000F900FBE0F901F901895239AE0EBF0E02D
:10041000808183608083A1EBB0E08C9187608C93B6
:1004200080818068808308950F931F93DF93CF931B
:1004300000D000D000D0CDB7DEB78091680188230E
:1004400009F44DC01092680181E06AE00E949000BA
:1004500000D000D000D0EDB7FEB731968FE691E026
:10046000ADB7BEB712969C938E93119780E091E042
:10047000938382838E010F5F1F4F158304830E9435
:1004800006068DB79EB706960FB6F8949EBF0FBEB0
:100490008DBFC8010E947400C8010E94AF059C0175
:1004A00080916C0190916D01821B930B97FF03C0AB
:1004B000909581959F4F4F9714F49CE00AC08091CE
:1004C0006C0190916D012817390710F098E001C078
:1004D00094E088B1837F88B988B1982B98B9269623
:1004E0000FB6F894DEBF0FBECDBFCF91DF911F9145
:1004F0000F9108951F920F920FB60F9211242F9310
:100500003F934F935F936F937F938F939F93AF939B
:10051000BF93EF93FF932091C6002B3721F481E026
:100520008093670136C0809167018823C1F1822FD3
:1005300080538A30A0F48091650190916601049700
:1005400074F48091650190916601FC01E159FE4FC0
:1005500020830196909366018093650120C02D371A
:10056000B1F48091650190916601181619067CF42A
:10057000E0916501F0916601E159FE4F108281E042
:1005800080936801109267010E94140208C01092C3
:100590006701109266011092650110926801FF9147
:1005A000EF91BF91AF919F918F917F916F915F91EB
:1005B0004F913F912F910F900FBE0F901F90189564
:1005C000EF92FF920F931F93DF93CF93CDB7DEB7D8
:1005D00027970FB6F894DEBF0FBECDBF7C0180E039
:1005E00060E00E9490008DB79EB708970FB6F89410
:1005F0009EBF0FBE8DBFEDB7FEB731968E010F5F68
:100600001F4FADB7BEB712961C930E93119787E09C
:1006100090E09383828384E091E095838483F782E2
:10062000E6820E94D505F8018DB79EB708960FB6F1
:10063000F8949EBF0FBE8DBF07C08091C00085FF9C
:10064000FCCF9093C600319690819923B1F72796FD
:100650000FB6F894DEBF0FBECDBFCF91DF911F91D3
:100660000F91FF90EF9008951F920F920FB60F9287
:1006700011242F933F934F935F936F937F938F93A7
:100680009F93AF93BF93EF93FF9381E00E9480000D
:1006900080E060E00E94900089E091E00E94740098
:1006A0002D98FF91EF91BF91AF919F918F917F9185
:1006B0006F915F914F913F912F910F900FBE0F90CF
:1006C0001F9018952F923F924F925F926F927F9258
:1006D0008F929F92AF92BF92CF92DF92EF92FF9252
:1006E0000F931F93DF93CF93CDB7DEB7AC970FB6C1
:1006F000F894DEBF0FBECDBF0E949A000E94CB01CE
:100700008091810088608093810080916F00826079
:1007100080936F0084E294EF909389008093880027
:100720000E9405028BB18C608BB980916D008C604A
:1007300080936D0080916800846080936800809150
:10074000680082608093680080916C008063809371
:100750006C00259A7894249A87E690E09093C500DF
:100760008093C4008091C10088618093C10086E0BD
:100770008093C2005C988091C10080688093C10022
:1007800087B18C6087B988B18C6088B981E00E949C
:10079000800080E060E00E94900088E191E00E948B
:1007A000740081E060E00E94900086E291E00E9487
:1007B000740080E197E220E931E0F9013197F1F727
:1007C0000197D9F781E00E94800088B1806388B9E1
:1007D00088EC90E00E94920A843628F490E090938E
:1007E00058018093570128EE33E071E1272E312C18
:1007F0006CE1462E512C4C0E5D1E4E010894811C5E
:10080000911C5AE0652E712C06C080E991E0019799
:10081000F1F72150304021153105B9F78091610180
:10082000882309F457C01092610181E060E00E94C2
:10083000900080915701909158010A97D8F48091C7
:100840005701909158012DB73EB7285030400FB650
:10085000F8943EBF0FBE2DBFEDB7FEB73196ADB7D2
:10086000BEB712969C928E921197738262822EE28C
:1008700031E017C08091570190915801ADB7BEB7D4
:1008800018970FB6F894BEBF0FBEADBFEDB7FEB759
:10089000319612969C928E9211977382628228E30F
:1008A00031E035832483978386830E94D5058DB7F5
:1008B0009EB708960FB6F8949EBF0FBE8DBFC401B9
:1008C0000E947400609157017091580188EC90E08B
:1008D0000E949A0A80916001882309F4E8C040913F
:1008E0005C0150915D0160915E0170915F01ADB757
:1008F000BEB71A970FB6F894BEBF0FBEADBFEDB727
:10090000FEB731962BE030E02C0F3D1F12963C9342
:100910002E9311973382228281E491E09583848320
:1009200046835783608771870E94D505ADB7BEB7F0
:100930001A960FB6F894BEBF0FBEADBF80E060E060
:100940000E949000CE010B960E94740020915C01E1
:1009500030915D0140915E0150915F0160E47CE95E
:1009600080E090E00E948D05D22EC32EB42EA52EDD
:10097000622F732F842F952F2AE030E040E050E063
:100980000E948D0579018A0189016D2D7C2D8B2DA9
:100990009A2D2AE030E040E050E00E948D05D62EEE
:1009A0002DB73EB72A5030400FB6F8943EBF0FBE69
:1009B0002DBFEDB7FEB73196ADB7BEB712965C92BC
:1009C0004E921197338222822BE431E035832483C7
:1009D000F782E682608711860E94D5058DB79EB7A3
:1009E0000A960FB6F8949EBF0FBE8DBFC2010E943B
:1009F0007400109260018091570190915801801706
:100A0000910758F480916201882339F485B5846098
:100A100085BD91E09093620111C080915701909142
:100A200058018017910750F080916201882331F0BE
:100A300085B58B7F85BD419810926201A7E1B0E03A
:100A40000A9FC0010B9F900D1A9F900D112464E620
:100A500070E00E94790523E230E0261B370BB901D4
:100A600080E090E023E230E040E050E00E948D051D
:100A70006093B300C80143E0880F991F4A95E1F7DE
:100A8000000F111F800F911F8D0D911D90936D010F
:100A900080936C0180916C0190916D010E94E00245
:100AA00080916801882319F488B18C6088B928EE98
:100AB00033E0ABCE629FD001739FF001829FE00DC7
:100AC000F11D649FE00DF11D929FF00D839FF00DCD
:100AD000749FF00D659FF00D9927729FB00DE11D79
:100AE000F91F639FB00DE11DF91FBD01CF01112456
:100AF0000895AA1BBB1B51E107C0AA1FBB1FA61765
:100B0000B70710F0A61BB70B881F991F5A95A9F7B6
:100B100080959095BC01CD010895A1E21A2EAA1BE3
:100B2000BB1BFD010DC0AA1FBB1FEE1FFF1FA2179D
:100B3000B307E407F50720F0A21BB30BE40BF50B9A
:100B4000661F771F881F991F1A9469F76095709523
:100B5000809590959B01AC01BD01CF010895FC01EA
:100B600088279927E89421912032E9F3293010F061
:100B70002E30C8F32B3241F02D3239F4689404C082
:100B80000E94CD05820F911D219120532A30C0F380
:100B90001EF4909581959F4F08957AE0979F902D30
:100BA000879F802D910D11240895AEE0B0E0EBED0C
:100BB000F5E00C94CC0B0D891E898F89988D97FFD9
:100BC00002C080E090E801979E838D831A83098399
:100BD00086E08C839E01255E3F4FCE010196698D94
:100BE0007A8DA9010E9420064D815E8157FD0AC0C1
:100BF0002F813885421753070CF49A01020F131FF7
:100C0000F80110822E96E4E00C94E80BAEE0B0E020
:100C1000ECE0F6E00C94CE0B85E08C838B899C890C
:100C20009A8389839E01295E3F4FCE0101966D898B
:100C30007E89A9010E9481092E96E2E00C94EA0BBC
:100C4000ABE0B0E0E6E2F6E00C94BE0B3C012B0119
:100C50005A01FC0117821682838181FD03C06FEF68
:100C60007FEFC6C19AE0892E1E010894211C311C19
:100C7000F3012381F20123FD859123FF81912F014F
:100C8000882309F4B2C1853239F423FD859123FF0D
:100C900081912F01853229F490E0B3010E94170B56
:100CA000E7CF982FFF24EE249924FFE1FF15D0F021
:100CB0009B3269F09C3228F4903259F0933291F4CF
:100CC0000EC09D3249F0903369F441E024C052E0F7
:100CD000F52A84E0F82A28C098E0F92A25C0E0E146
:100CE000FE2A22C0F7FC29C0892F80538A3070F475
:100CF000F6FE05C0989C902C1124980E15C0E89C17
:100D0000E02C1124E80EF0E2FF2A0EC09E3229F4F6
:100D1000F6FC6BC140E4F42A07C09C3619F450E895
:100D2000F52A02C0983649F4F20123FD959123FF7C
:100D300091912F01992309F0B8CF892F85548330E1
:100D400018F08052833038F444E050E0A40EB51E11
:100D50005FE359830FC0933631F0933779F09335C1
:100D600009F056C020C0F5018081898342E050E03F
:100D7000A40EB51E610101E010E012C0F501C080B3
:100D8000D180F6FC03C06FEF7FEF02C0692D70E0E9
:100D900042E050E0A40EB51EC6010E94CA0A8C01B2
:100DA0005FE7F52214C0F501C080D180F6FC03C0D6
:100DB0006FEF7FEF02C0692D70E042E050E0A40EBB
:100DC000B51EC6010E94BF0A8C0150E8F52AF3FE49
:100DD00007C01AC080E290E0B3010E94170BEA94AA
:100DE0008E2D90E008171907A8F30EC0F601F7FC46
:100DF0008591F7FE81916F0190E0B3010E94170B7E
:100E0000E110EA94015010400115110579F7EAC08C
:100E1000943611F0993669F5F7FE08C0F501208186
:100E200031814281538184E090E00AC0F5018081E4
:100E300091819C01442737FD4095542F82E090E03A
:100E4000A80EB91E9FE6F92257FF09C0509540959C
:100E5000309521953F4F4F4F5F4FE0E8FE2ACA0182
:100E6000B901A1012AE030E00E945D0BD82ED21812
:100E700040C0953729F41F2D1F7E2AE030E01DC0A9
:100E80001F2D197F9F3661F0903720F4983509F0B7
:100E9000ACC00FC0903739F0983709F0A6C004C035
:100EA00028E030E00AC0106114FD146020E130E059
:100EB00004C014FD166020E132E017FF08C0F50100
:100EC000608171818281938144E050E008C0F50126
:100ED00080819181BC0180E090E042E050E0A40E6E
:100EE000B51EA1010E945D0BD82ED2188FE7F82EF7
:100EF000F122F6FE0BC05EEFF522D91438F4F4FEB1
:100F000007C0F2FC05C08FEEF82202C01D2D01C003
:100F1000192DF4FE0DC0FE01ED0DF11D8081803311
:100F200019F499EEF92208C01F5FF2FE05C003C054
:100F30008F2D867809F01F5F0F2DF3FC14C0F0FE93
:100F40000FC01E1510F09D2C0BC09D2C9E0C911AED
:100F50001E2D06C080E290E0B3010E94170B1F5FB8
:100F60001E15C0F304C01E1510F4E11A01C0EE24D2
:100F700004FF0FC080E390E0B3010E94170B02FF53
:100F80001DC001FD03C088E790E00EC088E590E039
:100F90000BC0802F867891F001FF02C08BE201C068
:100FA00080E2F7FC8DE290E0B3010E94170B06C0CF
:100FB00080E390E0B3010E94170B9A94D914C0F318
:100FC000DA94F101ED0DF11D808190E0B3010E94F2
:100FD000170BDD20A9F706C080E290E0B3010E9464
:100FE000170BEA94EE20C1F743CEF30166817781B7
:100FF000CB012B96E2E10C94DA0BFC0120FD08C03A
:1010000023FD05C022FF02C07383628351834083A6
:101010000895EF92FF920F931F9344FF02C033E0B5
:1010200011C046FF02C034E00DC0DB01FC01AA0F75
:10103000BB1FEE1FFF1F1094D1F76A0F7B1F8E1F7F
:101040009F1F31E0660F771F881F991F3150D1F71E
:101050007B018C01E20EF11C011D111DA8019701FD
:10106000B701CA011F910F91FF90EF9008950F9360
:101070001F93CF93DF938C01C8010E94D50AEC0126
:1010800097FD08C00E94AC0A892BB1F7CE01B801C8
:101090000E94430BCE01DF91CF911F910F910895D4
:1010A000A0E0B0E0E6E5F8E00C94C60BEC01C62E3B
:1010B0005A01122F0E94D50AAC018B3219F08D32E1
:1010C00051F41068CA9409F46DC0CE010E94D50A8B
:1010D000AC0197FD67C06DEFD62ED1228D2D8073A8
:1010E00001F54033F1F4CA9409F447C0CE010E94DF
:1010F000D50AAC0197FD41C082E0D82A483711F0EB
:10110000483559F480E4D82ACA94B9F1CE010E9436
:10111000D50AAC0199232CF430C0D6FC02C080E182
:10112000D82AEE24FF248701242F2053283088F06A
:10113000D4FC09C02A3068F0D6FE05C02F7D822F6E
:101140008151863028F0CA01BE010E94430B12C0B3
:101150002750C801B7014D2D0E9409087B018C0161
:1011600082E0D82ACA9461F0CE010E94D50AAC016F
:1011700097FFDACFD1FC04C015C0EE24FF2487010D
:10118000D7FE08C010950095F094E094E11CF11C86
:10119000011D111DC501B801A7012D2D0E94FD07DC
:1011A00081E001C080E0CDB7DEB7EAE00C94E20B4D
:1011B000A0E2B0E0EEEDF8E00C94C20B6C01A62EBC
:1011C0008A017901FE01319680E2DF011D928A9544
:1011D000E9F770E030E060E040E050E04F01A1E06E
:1011E000B0E0F6018381F70183FD259183FF219112
:1011F0007F01222309F47EC02E3519F441155105D3
:1012000069F1872F90E08417950744F42D3551F14B
:101210002D3221F4332329F431E021C0332309F4A2
:10122000622F322F832F869586958695F401E80FDD
:10123000F11D832F87703D0102C0660C771C8A95D3
:10124000E2F7208126292083361711F430E007C009
:10125000361710F43F5FE6CF3150E4CF71E04F5FB7
:101260005F4FBFCF332319F08E8180628E83772347
:1012700059F0FE0131969E012F5D3F4F8081809590
:101280008193E217F307D1F7BB24B3944E0108947E
:10129000811C911CC6010E94D50AAC0197FD22C099
:1012A000869586958695F401E80FF11D808190E082
:1012B0009A012770307002C0959587952A95E2F7BC
:1012C00080FD05C0CA01B6010E94430B0BC0011589
:1012D000110519F0D8014D938D01AA94BB24AA20C1
:1012E000C9F602C0BB2031F40115110529F0F8013F
:1012F000108202C0EE24FF24C701A096EEE00C94F9
:10130000DE0BA0E0B0E0E7E8F9E00C94C20B5C0172
:101310006B013A01FC01178216828824EAC0812FF2
:1013200090E00E94AC0A892B21F0C5010E94370889
:10133000E0C0153249F4F601F3FC6591F3FE6191CA
:101340006F01653269F415E2C5010E94D50A97FD67
:10135000DCC0181709F4CDC0B5010E94430BDAC0F8
:101360006A3219F0162F00E006C0F3FC1591F3FE67
:1013700011916F0101E099240FC00260692D70E0A6
:1013800080E090E040E20E940908962EF601F3FC0E
:101390001591F3FE11916F01212F20532A3068F32C
:1013A00001FD03C099249A9403C0992009F4B2C0A6
:1013B000183621F01C3699F4F6010BC0F601F3FC47
:1013C0006591F3FE6191683619F06F01162F07C021
:1013D00008600460F3FC1591F3FE11916F01112375
:1013E00009F498C088E690E0612F70E00E94B40A8A
:1013F000892B09F48FC0802F00FF03C0EE24FF2447
:1014000007C0F301E080F18022E030E0620E731E3D
:101410001E3651F4F5014681578160E070E0C70146
:10142000202F0E94FD0765C0133691F481FD02C094
:1014300099249394C5010E94D50A97FD66C0E114D2
:10144000F10419F0F70181937F019A9499F74FC045
:101450001B3559F4C501692DA70196010E94D808D2
:101460006C01009709F043C03DC0C5010E943708D8
:1014700097FD4BC01F3659F1103728F4143629F167
:10148000193639F527C0133719F0153711F51DC076
:10149000C5010E94D50AEC0197FD11C00E94AC0A5B
:1014A000892B29F0CE01B5010E94430B08C0E1143D
:1014B000F10419F0F701C1937F019A9449F7E114FF
:1014C000F104A9F0F701108212C0006203C00061AC
:1014D00001C00064C501692DA701202F0E9450089A
:1014E000882329F4F5018381807379F413C000FF08
:1014F0008394F501F380F601F3FC1591F3FE11914D
:101500006F01112309F00BCF05C0882019F42FEFCC
:101510003FEF02C0282D30E0C901CDB7DEB7EEE0C5
:101520000C94DE0BF999FECF92BD81BDF89A9927F4
:1015300080B50895262FF999FECF92BD81BDF89A06
:10154000019700B4021639F01FBA20BD0FB6F89407
:10155000FA9AF99A0FBE089591110DC1803219F0CF
:1015600089508550D0F70895FC010590061621F0AA
:101570000020D9F7C00108953197CF010895FC01EB
:101580000590615070400110D8F7809590958E0FAE
:101590009F1F0895FC016150704001900110D8F721
:1015A000809590958E0F9F1F0895CF93DF93EC0148
:1015B0004B8140FF1AC046FF0AC04F7B4B838E8190
:1015C0009F8101969F838E838A81282F2BC042FFA3
:1015D00013C0E881F9818081282F332727FD3095BA
:1015E0002115310529F440624B832FEF3FEF1BC0DB
:1015F0003196F983E88311C0EA85FB85CE01099510
:101600009C0197FF0AC09B812F5F3F4F11F080E242
:1016100001C080E1892B8B83E8CF8E819F81019669
:101620009F838E8330E0C901DF91CF9108950F939E
:101630001F93CF93DF938C01EB018B8181FF1BC044
:1016400082FF0DC02E813F818C819D812817390733
:1016500064F4E881F9810193F983E88306C0E885A1
:10166000F985802F0995892B31F48E819F81019610
:101670009F838E8302C00FEF1FEFC801DF91CF91D0
:101680001F910F9108959C01FB01838180FF11C080
:1016900086FD0FC09FEF2F3F390759F022838064EA
:1016A0008F7D83838681978101979783868330E03E
:1016B00002C02FEF3FEFC9010895FA01AA27283091
:1016C00051F1203181F1E8946F936E7F6E5F7F4F0F
:1016D0008F4F9F4FAF4FB1E03ED0B4E03CD0670F8B
:1016E000781F891F9A1FA11D680F791F8A1F911DDE
:1016F000A11D6A0F711D811D911DA11D20D009F42E
:1017000068943F912AE0269F11243019305D31936F
:10171000DEF6CF010895462F4770405D4193B3E058
:101720000FD0C9F7F6CF462F4F70405D4A3318F0FF
:10173000495D31FD4052419302D0A9F7EACFB4E0B0
:10174000A6959795879577956795BA95C9F7009768
:101750006105710508959B01AC010A2E0694579509
:10176000479537952795BA95C9F7620F731F841F60
:10177000951FA01D08959927882708952F923F92BD
:101780004F925F926F927F928F929F92AF92BF9291
:10179000CF92DF92EF92FF920F931F93CF93DF933D
:1017A000CDB7DEB7CA1BDB0B0FB6F894DEBF0FBE9A
:1017B000CDBF09942A88398848885F846E847D84E7
:1017C0008C849B84AA84B984C884DF80EE80FD80E9
:1017D0000C811B81AA81B981CE0FD11D0FB6F8945F
:0E17E000DEBF0FBECDBFED010895F894FFCF20
:1017EE00253573007B25647D0054696D696E672015
:1017FE00657870697265640046696E616C2050721E
:10180E006F6A6563740056696E63656E74004D6130
:10181E0078203D20257520004D6178203D202575CE
:10182E0000256C64206D73203D200020202025753E
:0C183E002E2531750001010100F40100AD
:040000050080015521
:00000001FF
